{"abi":[{"type":"constructor","inputs":[{"name":"_contractOwner","type":"address","internalType":"address"},{"name":"_diamondCutFacet","type":"address","internalType":"address"}],"stateMutability":"payable"},{"type":"fallback","stateMutability":"payable"},{"type":"receive","stateMutability":"payable"},{"type":"function","name":"example","inputs":[],"outputs":[{"name":"","type":"string","internalType":"string"}],"stateMutability":"pure"},{"type":"event","name":"DiamondCut","inputs":[{"name":"_diamondCut","type":"tuple[]","indexed":false,"internalType":"struct IDiamondCut.FacetCut[]","components":[{"name":"facetAddress","type":"address","internalType":"address"},{"name":"action","type":"uint8","internalType":"enum IDiamondCut.FacetCutAction"},{"name":"functionSelectors","type":"bytes4[]","internalType":"bytes4[]"}]},{"name":"_init","type":"address","indexed":false,"internalType":"address"},{"name":"_calldata","type":"bytes","indexed":false,"internalType":"bytes"}],"anonymous":false},{"type":"event","name":"OwnershipTransferred","inputs":[{"name":"previousOwner","type":"address","indexed":true,"internalType":"address"},{"name":"newOwner","type":"address","indexed":true,"internalType":"address"}],"anonymous":false},{"type":"error","name":"EmptyCalldata","inputs":[]},{"type":"error","name":"ImmutableFunction","inputs":[{"name":"selector","type":"bytes4","internalType":"bytes4"}]},{"type":"error","name":"InValidFacetCutAction","inputs":[]},{"type":"error","name":"InitCallFailed","inputs":[]},{"type":"error","name":"MustBeZeroAddress","inputs":[]},{"type":"error","name":"NoCode","inputs":[]},{"type":"error","name":"NoSelectorsInFacet","inputs":[]},{"type":"error","name":"NoZeroAddress","inputs":[]},{"type":"error","name":"NonEmptyCalldata","inputs":[]},{"type":"error","name":"NonExistentSelector","inputs":[{"name":"selector","type":"bytes4","internalType":"bytes4"}]},{"type":"error","name":"SameSelectorReplacement","inputs":[{"name":"selector","type":"bytes4","internalType":"bytes4"}]},{"type":"error","name":"SelectorExists","inputs":[{"name":"selector","type":"bytes4","internalType":"bytes4"}]}],"bytecode":{"object":"0x608060405260405161113b38038061113b83398101604081905261002291610cc8565b61002b82610136565b604080516001808252818301909252600091816020015b604080516060808201835260008083526020830152918101919091528152602001906001900390816100425750506040805160018082528183019092529192506000919060208083019080368337019050509050631f931c1c60e01b816000815181106100b1576100b1610cfb565b6001600160e01b031990921660209283029190910182015260408051606081019091526001600160a01b038516815290810160008152602001828152508260008151811061010157610101610cfb565b602002602001018190525061012d826000604051806020016040528060008152506101b960201b60201c565b50505050610f2d565b7fc8fcad8db84d3cc18b4c41d551ea0ee66dd599cde068d998e57d5e09332c132080546001600160a01b031981166001600160a01b0384811691821790935560405160008051602061111b833981519152939092169182907f8be0079c531659141344cd1fd0a4f28419497f9722a3daafe3b4186f6b6457e090600090a3505050565b60005b83518110156103475760008482815181106101d9576101d9610cfb565b6020026020010151602001519050600060028111156101fa576101fa610d11565b81600281111561020c5761020c610d11565b036102605761025b85838151811061022657610226610cfb565b60200260200101516000015186848151811061024457610244610cfb565b60200260200101516040015161039260201b60201c565b61033e565b600181600281111561027457610274610d11565b036102c35761025b85838151811061028e5761028e610cfb565b6020026020010151600001518684815181106102ac576102ac610cfb565b60200260200101516040015161055c60201b60201c565b60028160028111156102d7576102d7610d11565b036103265761025b8583815181106102f1576102f1610cfb565b60200260200101516000015186848151811061030f5761030f610cfb565b60200260200101516040015161072a60201b60201c565b60405162c5e5d760e31b815260040160405180910390fd5b506001016101bc565b507f8faa70878671ccd212d20771b795c50af8fd3ff6cf27f4bde57e5d4de0aeb67383838360405161037b93929190610d77565b60405180910390a161038d82826107f0565b505050565b60008151116103b45760405163092d2fe560e41b815260040160405180910390fd5b60008051602061111b8339815191526001600160a01b0383166103ea5760405163ddbadd5f60e01b815260040160405180910390fd5b6001600160a01b0383166000908152600182016020526040812054906001600160601b03821690036104205761042082856108fc565b60005b835181101561055557600084828151811061044057610440610cfb565b6020908102919091018101516001600160e01b031981166000908152918690526040909120549091506001600160a01b031680156104a25760405163501e70c760e01b81526001600160e01b0319831660048201526024015b60405180910390fd5b6001600160e01b0319821660008181526020878152604080832080546001600160a01b03908116600160a01b6001600160601b038c16021782558c168085526001808c0185529285208054938401815585528385206008840401805463ffffffff60079095166004026101000a948502191660e08a901c94909402939093179092559390925287905281546001600160a01b0319161790558361054481610e9c565b945050600190920191506104239050565b5050505050565b600081511161057e5760405163092d2fe560e41b815260040160405180910390fd5b60008051602061111b8339815191526001600160a01b0383166105b45760405163ddbadd5f60e01b815260040160405180910390fd5b6001600160a01b0383166000908152600182016020526040812054906001600160601b03821690036105ea576105ea82856108fc565b60005b835181101561055557600084828151811061060a5761060a610cfb565b6020908102919091018101516001600160e01b031981166000908152918690526040909120549091506001600160a01b03908116908716810361066c57604051631c04188b60e31b81526001600160e01b031983166004820152602401610499565b61067785828461094d565b6001600160e01b0319821660008181526020878152604080832080546001600160a01b03908116600160a01b6001600160601b038c16021782558c168085526001808c0185529285208054938401815585528385206008840401805463ffffffff60079095166004026101000a948502191660e08a901c94909402939093179092559390925287905281546001600160a01b0319161790558361071981610e9c565b945050600190920191506105ed9050565b600081511161074c5760405163092d2fe560e41b815260040160405180910390fd5b60008051602061111b8339815191526001600160a01b0383161561078357604051631be65fe560e21b815260040160405180910390fd5b60005b82518110156107ea5760008382815181106107a3576107a3610cfb565b6020908102919091018101516001600160e01b031981166000908152918590526040909120549091506001600160a01b03166107e084828461094d565b5050600101610786565b50505050565b6001600160a01b0382166108225780511561081e5760405163c21b1ab760e01b815260040160405180910390fd5b5050565b805160000361084457604051633011e86160e21b815260040160405180910390fd5b6001600160a01b038216301461085d5761085d82610c8c565b600080836001600160a01b0316836040516108789190610ec8565b600060405180830381855af49150503d80600081146108b3576040519150601f19603f3d011682016040523d82523d6000602084013e6108b8565b606091505b5091509150816107ea578051156108e3578060405162461bcd60e51b81526004016104999190610ee4565b604051633a18f8dd60e01b815260040160405180910390fd5b61090581610c8c565b6002820180546001600160a01b0390921660008181526001948501602090815260408220860185905594840183559182529290200180546001600160a01b0319169091179055565b6001600160a01b03821661097f57604051622902d360e91b81526001600160e01b031982166004820152602401610499565b306001600160a01b038316036109b45760405163069731c560e41b81526001600160e01b031982166004820152602401610499565b6001600160e01b03198116600090815260208481526040808320546001600160a01b0386168452600180880190935290832054600160a01b9091046001600160601b03169291610a0391610efe565b9050808214610af5576001600160a01b03841660009081526001860160205260408120805483908110610a3857610a38610cfb565b600091825260208083206008830401546001600160a01b038916845260018a019091526040909220805460079092166004026101000a90920460e01b925082919085908110610a8957610a89610cfb565b600091825260208083206008830401805463ffffffff60079094166004026101000a938402191660e09590951c929092029390931790556001600160e01b03199290921682528690526040902080546001600160a01b0316600160a01b6001600160601b038516021790555b6001600160a01b03841660009081526001860160205260409020805480610b1e57610b1e610f17565b60008281526020808220600860001990940193840401805463ffffffff600460078716026101000a0219169055919092556001600160e01b03198516825286905260408120819055819003610555576002850154600090610b8190600190610efe565b6001600160a01b0386166000908152600180890160205260409091200154909150808214610c30576000876002018381548110610bc057610bc0610cfb565b6000918252602090912001546002890180546001600160a01b039092169250829184908110610bf157610bf1610cfb565b600091825260208083209190910180546001600160a01b0319166001600160a01b03948516179055929091168152600189810190925260409020018190555b86600201805480610c4357610c43610f17565b60008281526020808220830160001990810180546001600160a01b03191690559092019092556001600160a01b0388168252600189810190915260408220015550505050505050565b803b8061081e57604051633c11a9c560e21b815260040160405180910390fd5b80516001600160a01b0381168114610cc357600080fd5b919050565b60008060408385031215610cdb57600080fd5b610ce483610cac565b9150610cf260208401610cac565b90509250929050565b634e487b7160e01b600052603260045260246000fd5b634e487b7160e01b600052602160045260246000fd5b60005b83811015610d42578181015183820152602001610d2a565b50506000910152565b60008151808452610d63816020860160208601610d27565b601f01601f19169290920160200192915050565b6000606082016060835280865180835260808501915060808160051b86010192506020880160005b82811015610e5757868503607f19018452815180516001600160a01b031686526020810151606087019060038110610de757634e487b7160e01b600052602160045260246000fd5b806020890152506040820151915060606040880152808251808352608089019150602084019350600092505b80831015610e3f5783516001600160e01b03191682526020938401936001939093019290910190610e13565b50965050506020938401939190910190600101610d9f565b5050506001600160a01b0386166020850152508281036040840152610e7c8185610d4b565b9695505050505050565b634e487b7160e01b600052601160045260246000fd5b60006001600160601b0382166002600160601b03198101610ebf57610ebf610e86565b60010192915050565b60008251610eda818460208701610d27565b9190910192915050565b602081526000610ef76020830184610d4b565b9392505050565b81810381811115610f1157610f11610e86565b92915050565b634e487b7160e01b600052603160045260246000fd5b6101df80610f3c6000396000f3fe6080604052600436106100225760003560e01c806354353f2f146100e557610029565b3661002957005b600080356001600160e01b03191681527fc8fcad8db84d3cc18b4c41d551ea0ee66dd599cde068d998e57d5e09332c131c602081905260409091205481906001600160a01b0316806100c15760405162461bcd60e51b815260206004820181905260248201527f4469616d6f6e643a2046756e6374696f6e20646f6573206e6f74206578697374604482015260640160405180910390fd5b3660008037600080366000845af43d6000803e8080156100e0573d6000f35b3d6000fd5b3480156100f157600080fd5b506100fa610110565b6040516101079190610130565b60405180910390f35b60606040518060600160405280602b815260200161017f602b9139905090565b602081526000825180602084015260005b8181101561015e5760208186018101516040868401015201610141565b506000604082850101526040601f19601f8301168401019150509291505056fe5448495320495320414e204558414d504c45204f4620414e20494d4d555441424c452046554e4354494f4ea2646970667358221220217d2af79c1aa0eabbdc4bfa58e0957131f9590c2771a8e978364b22cb40415564736f6c634300081c0033c8fcad8db84d3cc18b4c41d551ea0ee66dd599cde068d998e57d5e09332c131c","linkReferences":{}},"methodIdentifiers":{"example()":"54353f2f"},"id":1}