{"abi":[{"type":"function","name":"depositNFT","inputs":[{"name":"_nftContract","type":"address","internalType":"address"},{"name":"_tokenId","type":"uint256","internalType":"uint256"}],"outputs":[],"stateMutability":"nonpayable"},{"type":"function","name":"releaseCollateral","inputs":[{"name":"_nftContract","type":"address","internalType":"address"},{"name":"_tokenId","type":"uint256","internalType":"uint256"}],"outputs":[],"stateMutability":"nonpayable"},{"type":"event","name":"CollateralDeposited","inputs":[{"name":"nftContract","type":"address","indexed":false,"internalType":"address"},{"name":"tokenId","type":"uint256","indexed":false,"internalType":"uint256"},{"name":"owner","type":"address","indexed":false,"internalType":"address"}],"anonymous":false},{"type":"event","name":"CollateralReleased","inputs":[{"name":"nftContract","type":"address","indexed":false,"internalType":"address"},{"name":"tokenId","type":"uint256","indexed":false,"internalType":"uint256"},{"name":"owner","type":"address","indexed":false,"internalType":"address"}],"anonymous":false}],"bytecode":{"object":"0x6080604052348015600f57600080fd5b506103bc8061001f6000396000f3fe608060405234801561001057600080fd5b50600436106100365760003560e01c80639b5b9b181461003b578063bd6f2c5214610050575b600080fd5b61004e61004936600461034e565b610063565b005b61004e61005e36600461034e565b6101c1565b6040516323b872dd60e01b8152336004820152306024820152604481018290526001600160a01b038316906323b872dd90606401600060405180830381600087803b1580156100b157600080fd5b505af11580156100c5573d6000803e3d6000fd5b5050505060006100f27fc37299494071b271d0a44c3503de9b44c6bb3093f69f343460ebd9831e0008ec90565b604080516080810182526001600160a01b0386811680835260208084018881523385870181815260016060808901828152600085815260028d81018952908c90209a518b54908b166001600160a01b0319909116178b559551928a0192909255915197909301805493511515600160a01b026001600160a81b031990941697909616969096179190911790935584519182528101879052928301529192507fa95929ba4ccecfcbca9ce9798d6dfb0c0c6e06226a6d0e1905bb20a8e28157a991015b60405180910390a1505050565b3360009081527fc37299494071b271d0a44c3503de9b44c6bb3093f69f343460ebd9831e0008ee60205260409020600201547fc37299494071b271d0a44c3503de9b44c6bb3093f69f343460ebd9831e0008ec90600160a01b900460ff166102655760405162461bcd60e51b8152602060048201526013602482015272139bc818dbdb1b185d195c985b08199bdd5b99606a1b604482015260640160405180910390fd5b6040516323b872dd60e01b8152306004820152336024820152604481018390526001600160a01b038416906323b872dd90606401600060405180830381600087803b1580156102b357600080fd5b505af11580156102c7573d6000803e3d6000fd5b505033600081815260028581016020908152604080842080546001600160a01b031916815560018101949094559290910180546001600160a81b031916905581516001600160a01b0389168152908101879052908101919091527f887eb7234a2c4fa94c5778832c90928b2ce458cfee0053ed170baa8cde476fb5925060600190506101b4565b6000806040838503121561036157600080fd5b82356001600160a01b038116811461037857600080fd5b94602093909301359350505056fea2646970667358221220b3e50f9e5993bba2fec2330a0c22ac62522398216e0262b6122fc9d57b9422bb64736f6c634300081c0033","linkReferences":{}},"methodIdentifiers":{"depositNFT(address,uint256)":"9b5b9b18","releaseCollateral(address,uint256)":"bd6f2c52"},"id":2}