{"abi":[{"type":"function","name":"calculateRepayment","inputs":[{"name":"loan","type":"tuple","internalType":"struct LibDiamondStorage.Loan","components":[{"name":"loanId","type":"uint256","internalType":"uint256"},{"name":"borrower","type":"address","internalType":"address"},{"name":"lender","type":"address","internalType":"address"},{"name":"loanAmount","type":"uint256","internalType":"uint256"},{"name":"collateralId","type":"uint256","internalType":"uint256"},{"name":"collateralContract","type":"address","internalType":"address"},{"name":"duration","type":"uint256","internalType":"uint256"},{"name":"interestRate","type":"uint256","internalType":"uint256"},{"name":"startTime","type":"uint256","internalType":"uint256"},{"name":"status","type":"uint8","internalType":"enum LibDiamondStorage.LoanStatus"}]}],"outputs":[{"name":"","type":"uint256","internalType":"uint256"}],"stateMutability":"view"},{"type":"function","name":"repayLoan","inputs":[{"name":"_loanId","type":"uint256","internalType":"uint256"}],"outputs":[],"stateMutability":"payable"},{"type":"event","name":"LoanRepaid","inputs":[{"name":"loanId","type":"uint256","indexed":false,"internalType":"uint256"},{"name":"borrower","type":"address","indexed":false,"internalType":"address"},{"name":"amount","type":"uint256","indexed":false,"internalType":"uint256"}],"anonymous":false}],"bytecode":{"object":"0x6080604052348015600f57600080fd5b506105558061001f6000396000f3fe6080604052600436106100295760003560e01c806394c4b3d71461002e578063ab7b1c8914610060575b600080fd5b34801561003a57600080fd5b5061004e6100493660046103cd565b610075565b60405190815260200160405180910390f35b61007361006e366004610475565b6100d5565b005b6000808261010001514261008991906104a4565b9050600063bbf81e00828560e0015186606001516100a791906104bd565b6100b191906104bd565b6100bb91906104d4565b90508084606001516100cd91906104f6565b949350505050565b60008181527fc37299494071b271d0a44c3503de9b44c6bb3093f69f343460ebd9831e0008ed6020526040812060098101547fc37299494071b271d0a44c3503de9b44c6bb3093f69f343460ebd9831e0008ec929060ff16600281111561013e5761013e610509565b146101855760405162461bcd60e51b81526020600482015260126024820152714c6f616e206973206e6f742061637469766560701b60448201526064015b60405180910390fd5b60018101546001600160a01b031633146101d45760405162461bcd60e51b815260206004820152601060248201526f2737ba103a3432903137b93937bbb2b960811b604482015260640161017c565b60408051610140810182528254815260018301546001600160a01b039081166020830152600280850154821693830193909352600384015460608301526004840154608083015260058401541660a0820152600683015460c0820152600783015460e0820152600883015461010082015260098301546000926102869291859161012084019160ff169081111561026d5761026d610509565b600281111561027e5761027e610509565b905250610075565b9050803410156102d85760405162461bcd60e51b815260206004820152601d60248201527f496e73756666696369656e742072657061796d656e7420616d6f756e74000000604482015260640161017c565b60098201805460ff1916600117905560028201546040516001600160a01b03909116906108fc8315029083906000818181858888f19350505050158015610323573d6000803e3d6000fd5b50604080518581523360208201529081018290527f512d3e65b3e58c2187bb1872aa435dba5bd09c1c03823ba56ab70aac411e4a219060600160405180910390a150505050565b604051610140810167ffffffffffffffff8111828210171561039c57634e487b7160e01b600052604160045260246000fd5b60405290565b80356001600160a01b03811681146103b957600080fd5b919050565b8035600381106103b957600080fd5b60006101408284031280156103e157600080fd5b5060006103ec61036a565b833581526103fc602085016103a2565b602082015261040d604085016103a2565b6040820152606084810135908201526080808501359082015261043260a085016103a2565b60a082015260c0848101359082015260e0808501359082015261010080850135908201819052915061046761012085016103be565b610120820152949350505050565b60006020828403121561048757600080fd5b5035919050565b634e487b7160e01b600052601160045260246000fd5b818103818111156104b7576104b761048e565b92915050565b80820281158282048414176104b7576104b761048e565b6000826104f157634e487b7160e01b600052601260045260246000fd5b500490565b808201808211156104b7576104b761048e565b634e487b7160e01b600052602160045260246000fdfea2646970667358221220434b622d4c4c422cfe35ff07cfe132fffa67417dae91c3e6ddc6d7f5c42246ee64736f6c634300081c0033","linkReferences":{}},"methodIdentifiers":{"calculateRepayment((uint256,address,address,uint256,uint256,address,uint256,uint256,uint256,uint8))":"94c4b3d7","repayLoan(uint256)":"ab7b1c89"},"id":8}