{"abi":[{"type":"function","name":"liquidateLoan","inputs":[{"name":"_loanId","type":"uint256","internalType":"uint256"}],"outputs":[],"stateMutability":"nonpayable"},{"type":"event","name":"LoanDefaulted","inputs":[{"name":"loanId","type":"uint256","indexed":false,"internalType":"uint256"},{"name":"lender","type":"address","indexed":false,"internalType":"address"},{"name":"nftContract","type":"address","indexed":false,"internalType":"address"},{"name":"tokenId","type":"uint256","indexed":false,"internalType":"uint256"}],"anonymous":false}],"bytecode":{"object":"0x6080604052348015600f57600080fd5b506103988061001f6000396000f3fe608060405234801561001057600080fd5b506004361061002b5760003560e01c8063ccdd9f5d14610030575b600080fd5b61004361003e36600461030c565b610045565b005b60008181527fc37299494071b271d0a44c3503de9b44c6bb3093f69f343460ebd9831e0008ed6020526040812060098101547fc37299494071b271d0a44c3503de9b44c6bb3093f69f343460ebd9831e0008ec929060ff1660028111156100ae576100ae610325565b146100f55760405162461bcd60e51b81526020600482015260126024820152714c6f616e206973206e6f742061637469766560701b60448201526064015b60405180910390fd5b80600601548160080154610109919061033b565b42116101575760405162461bcd60e51b815260206004820152601a60248201527f4c6f616e206475726174696f6e206e6f7420796574206f76657200000000000060448201526064016100ec565b60028101546001600160a01b031633146101b35760405162461bcd60e51b815260206004820152601960248201527f4f6e6c79206c656e6465722063616e206c69717569646174650000000000000060448201526064016100ec565b60098101805460ff1916600290811790915560018201546001600160a01b03166000908152838201602052604090209081015460ff600160a01b909104166102335760405162461bcd60e51b8152602060048201526013602482015272139bc818dbdb1b185d195c985b08199bdd5b99606a1b60448201526064016100ec565b805460018201546040516323b872dd60e01b815230600482015233602482015260448101919091526001600160a01b03909116906323b872dd90606401600060405180830381600087803b15801561028a57600080fd5b505af115801561029e573d6000803e3d6000fd5b5050505060028101805460ff60a01b1916905580546001820154604080518781523360208201526001600160a01b039093169083015260608201527f9ac42fdd741489507492da2506a636e306b72d3c9a01c87fb1dcbfa373236eb69060800160405180910390a150505050565b60006020828403121561031e57600080fd5b5035919050565b634e487b7160e01b600052602160045260246000fd5b8082018082111561035c57634e487b7160e01b600052601160045260246000fd5b9291505056fea26469706673582212209c1b5eb78b6867d72fdd3b57a11160d55b786cabba339cc567e7a0078a3387f164736f6c634300081c0033","linkReferences":{}},"methodIdentifiers":{"liquidateLoan(uint256)":"ccdd9f5d"},"id":6}