{"abi":[{"type":"constructor","inputs":[{"name":"_owner","type":"address","internalType":"address"}],"stateMutability":"nonpayable"},{"type":"fallback","stateMutability":"payable"},{"type":"function","name":"addFacet","inputs":[{"name":"_facet","type":"address","internalType":"address"},{"name":"_selectors","type":"bytes4[]","internalType":"bytes4[]"}],"outputs":[],"stateMutability":"nonpayable"}],"bytecode":{"object":"0x6080604052348015600f57600080fd5b506040516104b13803806104b1833981016040819052602c91606f565b7fc37299494071b271d0a44c3503de9b44c6bb3093f69f343460ebd9831e0008f080546001600160a01b0319166001600160a01b0392909216919091179055609d565b600060208284031215608057600080fd5b81516001600160a01b0381168114609657600080fd5b9392505050565b610405806100ac6000396000f3fe60806040526004361061001e5760003560e01c80635547dad614610165575b60007fc37299494071b271d0a44c3503de9b44c6bb3093f69f343460ebd9831e0008ec600080356001600160e01b0319168152602082905260409020549091506001600160a01b0316806100b95760405162461bcd60e51b815260206004820152601760248201527f46756e6374696f6e20646f6573206e6f7420657869737400000000000000000060448201526064015b60405180910390fd5b600080826001600160a01b03166000366040516100d7929190610285565b600060405180830381855af49150503d8060008114610112576040519150601f19603f3d011682016040523d82523d6000602084013e610117565b606091505b50915091508161015d5760405162461bcd60e51b8152602060048201526011602482015270119858d95d0818d85b1b0819985a5b1959607a1b60448201526064016100b0565b805160208201f35b34801561017157600080fd5b506101856101803660046102c8565b610187565b005b7fc37299494071b271d0a44c3503de9b44c6bb3093f69f343460ebd9831e0008ec600401546001600160a01b031633146101ef5760405162461bcd60e51b81526020600482015260096024820152682737ba1037bbb732b960b91b60448201526064016100b0565b7fc37299494071b271d0a44c3503de9b44c6bb3093f69f343460ebd9831e0008ec60005b825181101561027f5783826000016000858481518110610235576102356103b9565b6020908102919091018101516001600160e01b031916825281019190915260400160002080546001600160a01b0319166001600160a01b0392909216919091179055600101610213565b50505050565b8183823760009101908152919050565b634e487b7160e01b600052604160045260246000fd5b80356001600160e01b0319811681146102c357600080fd5b919050565b600080604083850312156102db57600080fd5b82356001600160a01b03811681146102f257600080fd5b9150602083013567ffffffffffffffff81111561030e57600080fd5b8301601f8101851361031f57600080fd5b803567ffffffffffffffff81111561033957610339610295565b8060051b604051601f19603f830116810181811067ffffffffffffffff8211171561036657610366610295565b60405291825260208184018101929081018884111561038457600080fd5b6020850194505b838510156103aa5761039c856102ab565b81526020948501940161038b565b50809450505050509250929050565b634e487b7160e01b600052603260045260246000fdfea26469706673582212200694d7f99aaf79a073c002a0b9266f97c9b0e21e41a493661a0455650e08529964736f6c634300081c0033","linkReferences":{}},"methodIdentifiers":{"addFacet(address,bytes4[])":"5547dad6"},"id":0}